{
  "contractName": "SoInSquareVerifier",
  "abi": [
    {
      "constant": true,
      "inputs": [
        {
          "name": "interfaceId",
          "type": "bytes4"
        }
      ],
      "name": "supportsInterface",
      "outputs": [
        {
          "name": "",
          "type": "bool"
        }
      ],
      "payable": false,
      "stateMutability": "view",
      "type": "function"
    },
    {
      "constant": true,
      "inputs": [
        {
          "name": "tokenId",
          "type": "uint256"
        }
      ],
      "name": "getApproved",
      "outputs": [
        {
          "name": "",
          "type": "address"
        }
      ],
      "payable": false,
      "stateMutability": "view",
      "type": "function"
    },
    {
      "constant": false,
      "inputs": [
        {
          "name": "to",
          "type": "address"
        },
        {
          "name": "tokenId",
          "type": "uint256"
        }
      ],
      "name": "approve",
      "outputs": [],
      "payable": false,
      "stateMutability": "nonpayable",
      "type": "function"
    },
    {
      "constant": true,
      "inputs": [],
      "name": "getSymbol",
      "outputs": [
        {
          "name": "",
          "type": "string"
        }
      ],
      "payable": false,
      "stateMutability": "view",
      "type": "function"
    },
    {
      "constant": false,
      "inputs": [
        {
          "name": "isPaused",
          "type": "bool"
        }
      ],
      "name": "setPaused",
      "outputs": [],
      "payable": false,
      "stateMutability": "nonpayable",
      "type": "function"
    },
    {
      "constant": true,
      "inputs": [],
      "name": "getName",
      "outputs": [
        {
          "name": "",
          "type": "string"
        }
      ],
      "payable": false,
      "stateMutability": "view",
      "type": "function"
    },
    {
      "constant": true,
      "inputs": [],
      "name": "totalSupply",
      "outputs": [
        {
          "name": "",
          "type": "uint256"
        }
      ],
      "payable": false,
      "stateMutability": "view",
      "type": "function"
    },
    {
      "constant": false,
      "inputs": [
        {
          "name": "from",
          "type": "address"
        },
        {
          "name": "to",
          "type": "address"
        },
        {
          "name": "tokenId",
          "type": "uint256"
        }
      ],
      "name": "transferFrom",
      "outputs": [],
      "payable": false,
      "stateMutability": "nonpayable",
      "type": "function"
    },
    {
      "constant": false,
      "inputs": [
        {
          "name": "_myid",
          "type": "bytes32"
        },
        {
          "name": "_result",
          "type": "string"
        }
      ],
      "name": "__callback",
      "outputs": [],
      "payable": false,
      "stateMutability": "nonpayable",
      "type": "function"
    },
    {
      "constant": true,
      "inputs": [
        {
          "name": "owner",
          "type": "address"
        },
        {
          "name": "index",
          "type": "uint256"
        }
      ],
      "name": "tokenOfOwnerByIndex",
      "outputs": [
        {
          "name": "",
          "type": "uint256"
        }
      ],
      "payable": false,
      "stateMutability": "view",
      "type": "function"
    },
    {
      "constant": false,
      "inputs": [
        {
          "name": "_myid",
          "type": "bytes32"
        },
        {
          "name": "_result",
          "type": "string"
        },
        {
          "name": "_proof",
          "type": "bytes"
        }
      ],
      "name": "__callback",
      "outputs": [],
      "payable": false,
      "stateMutability": "nonpayable",
      "type": "function"
    },
    {
      "constant": false,
      "inputs": [
        {
          "name": "to",
          "type": "address"
        },
        {
          "name": "tokenId",
          "type": "uint256"
        }
      ],
      "name": "mint",
      "outputs": [
        {
          "name": "",
          "type": "bool"
        }
      ],
      "payable": false,
      "stateMutability": "nonpayable",
      "type": "function"
    },
    {
      "constant": false,
      "inputs": [
        {
          "name": "from",
          "type": "address"
        },
        {
          "name": "to",
          "type": "address"
        },
        {
          "name": "tokenId",
          "type": "uint256"
        }
      ],
      "name": "safeTransferFrom",
      "outputs": [],
      "payable": false,
      "stateMutability": "nonpayable",
      "type": "function"
    },
    {
      "constant": true,
      "inputs": [
        {
          "name": "index",
          "type": "uint256"
        }
      ],
      "name": "tokenByIndex",
      "outputs": [
        {
          "name": "",
          "type": "uint256"
        }
      ],
      "payable": false,
      "stateMutability": "view",
      "type": "function"
    },
    {
      "constant": true,
      "inputs": [
        {
          "name": "a",
          "type": "uint256[2]"
        },
        {
          "name": "b",
          "type": "uint256[2][2]"
        },
        {
          "name": "c",
          "type": "uint256[2]"
        },
        {
          "name": "input",
          "type": "uint256[2]"
        }
      ],
      "name": "verifyTx",
      "outputs": [
        {
          "name": "r",
          "type": "bool"
        }
      ],
      "payable": false,
      "stateMutability": "view",
      "type": "function"
    },
    {
      "constant": true,
      "inputs": [
        {
          "name": "tokenId",
          "type": "uint256"
        }
      ],
      "name": "ownerOf",
      "outputs": [
        {
          "name": "",
          "type": "address"
        }
      ],
      "payable": false,
      "stateMutability": "view",
      "type": "function"
    },
    {
      "constant": true,
      "inputs": [
        {
          "name": "owner",
          "type": "address"
        }
      ],
      "name": "balanceOf",
      "outputs": [
        {
          "name": "",
          "type": "uint256"
        }
      ],
      "payable": false,
      "stateMutability": "view",
      "type": "function"
    },
    {
      "constant": true,
      "inputs": [],
      "name": "getOwner",
      "outputs": [
        {
          "name": "",
          "type": "address"
        }
      ],
      "payable": false,
      "stateMutability": "view",
      "type": "function"
    },
    {
      "constant": false,
      "inputs": [
        {
          "name": "to",
          "type": "address"
        },
        {
          "name": "approved",
          "type": "bool"
        }
      ],
      "name": "setApprovalForAll",
      "outputs": [],
      "payable": false,
      "stateMutability": "nonpayable",
      "type": "function"
    },
    {
      "constant": false,
      "inputs": [
        {
          "name": "from",
          "type": "address"
        },
        {
          "name": "to",
          "type": "address"
        },
        {
          "name": "tokenId",
          "type": "uint256"
        },
        {
          "name": "_data",
          "type": "bytes"
        }
      ],
      "name": "safeTransferFrom",
      "outputs": [],
      "payable": false,
      "stateMutability": "nonpayable",
      "type": "function"
    },
    {
      "constant": true,
      "inputs": [],
      "name": "getBaseTokenURI",
      "outputs": [
        {
          "name": "",
          "type": "string"
        }
      ],
      "payable": false,
      "stateMutability": "view",
      "type": "function"
    },
    {
      "constant": true,
      "inputs": [
        {
          "name": "tokenId",
          "type": "uint256"
        }
      ],
      "name": "tokenURI",
      "outputs": [
        {
          "name": "",
          "type": "string"
        }
      ],
      "payable": false,
      "stateMutability": "view",
      "type": "function"
    },
    {
      "constant": true,
      "inputs": [
        {
          "name": "owner",
          "type": "address"
        },
        {
          "name": "operator",
          "type": "address"
        }
      ],
      "name": "isApprovedForAll",
      "outputs": [
        {
          "name": "",
          "type": "bool"
        }
      ],
      "payable": false,
      "stateMutability": "view",
      "type": "function"
    },
    {
      "constant": false,
      "inputs": [
        {
          "name": "newOwner",
          "type": "address"
        }
      ],
      "name": "transferOwnership",
      "outputs": [],
      "payable": false,
      "stateMutability": "nonpayable",
      "type": "function"
    },
    {
      "inputs": [],
      "payable": false,
      "stateMutability": "nonpayable",
      "type": "constructor"
    },
    {
      "anonymous": false,
      "inputs": [
        {
          "indexed": false,
          "name": "newSolution",
          "type": "address"
        }
      ],
      "name": "addSolution",
      "type": "event"
    },
    {
      "anonymous": false,
      "inputs": [
        {
          "indexed": true,
          "name": "from",
          "type": "address"
        },
        {
          "indexed": true,
          "name": "to",
          "type": "address"
        },
        {
          "indexed": true,
          "name": "tokenId",
          "type": "uint256"
        }
      ],
      "name": "Transfer",
      "type": "event"
    },
    {
      "anonymous": false,
      "inputs": [
        {
          "indexed": true,
          "name": "owner",
          "type": "address"
        },
        {
          "indexed": true,
          "name": "approved",
          "type": "address"
        },
        {
          "indexed": true,
          "name": "tokenId",
          "type": "uint256"
        }
      ],
      "name": "Approval",
      "type": "event"
    },
    {
      "anonymous": false,
      "inputs": [
        {
          "indexed": true,
          "name": "owner",
          "type": "address"
        },
        {
          "indexed": true,
          "name": "operator",
          "type": "address"
        },
        {
          "indexed": false,
          "name": "approved",
          "type": "bool"
        }
      ],
      "name": "ApprovalForAll",
      "type": "event"
    },
    {
      "anonymous": false,
      "inputs": [
        {
          "indexed": false,
          "name": "addr",
          "type": "address"
        },
        {
          "indexed": false,
          "name": "amount",
          "type": "uint256"
        }
      ],
      "name": "Paused",
      "type": "event"
    },
    {
      "anonymous": false,
      "inputs": [
        {
          "indexed": false,
          "name": "addr",
          "type": "address"
        },
        {
          "indexed": false,
          "name": "amount",
          "type": "uint256"
        }
      ],
      "name": "Unpaused",
      "type": "event"
    },
    {
      "anonymous": false,
      "inputs": [
        {
          "indexed": false,
          "name": "addr",
          "type": "address"
        }
      ],
      "name": "changedOwnership",
      "type": "event"
    },
    {
      "constant": false,
      "inputs": [
        {
          "name": "newAddress",
          "type": "address"
        },
        {
          "name": "solutionId",
          "type": "uint256"
        },
        {
          "name": "a",
          "type": "uint256[2]"
        },
        {
          "name": "b",
          "type": "uint256[2][2]"
        },
        {
          "name": "c",
          "type": "uint256[2]"
        },
        {
          "name": "input",
          "type": "uint256[2]"
        }
      ],
      "name": "addNewSolution",
      "outputs": [],
      "payable": false,
      "stateMutability": "nonpayable",
      "type": "function"
    },
    {
      "constant": true,
      "inputs": [],
      "name": "getSolutionsAdded",
      "outputs": [
        {
          "name": "",
          "type": "uint256"
        }
      ],
      "payable": false,
      "stateMutability": "view",
      "type": "function"
    },
    {
      "constant": true,
      "inputs": [],
      "name": "getTokensMinted",
      "outputs": [
        {
          "name": "",
          "type": "uint256"
        }
      ],
      "payable": false,
      "stateMutability": "view",
      "type": "function"
    },
    {
      "constant": false,
      "inputs": [
        {
          "name": "a",
          "type": "uint256[2]"
        },
        {
          "name": "b",
          "type": "uint256[2][2]"
        },
        {
          "name": "c",
          "type": "uint256[2]"
        },
        {
          "name": "input",
          "type": "uint256[2]"
        },
        {
          "name": "newAddress",
          "type": "address"
        },
        {
          "name": "newId",
          "type": "uint256"
        }
      ],
      "name": "mintNFT",
      "outputs": [],
      "payable": false,
      "stateMutability": "nonpayable",
      "type": "function"
    }
  ],
  "bytecode": "0x60806040523480156200001157600080fd5b506040518060400160405280600881526020017f43617073746f6e650000000000000000000000000000000000000000000000008152506040518060400160405280600781526020017f4341505053544e000000000000000000000000000000000000000000000000008152506040518060600160405280603f815260200162004feb603f9139336000806101000a81548173ffffffffffffffffffffffffffffffffffffffff021916908373ffffffffffffffffffffffffffffffffffffffff1602179055507fbfaea6a5831818a14c642eaa23c5eed274ba1be3f18b642b251f57862fe9e2ec33604051808273ffffffffffffffffffffffffffffffffffffffff1673ffffffffffffffffffffffffffffffffffffffff16815260200191505060405180910390a160008060146101000a81548160ff0219169083151502179055506200016d6301ffc9a760e01b6200021960201b60201c565b620001856380ac58cd60e01b6200021960201b60201c565b6200019d63780e9d6360e01b6200021960201b60201c565b82600f9080519060200190620001b5929190620002bb565b508160109080519060200190620001ce929190620002bb565b508060119080519060200190620001e7929190620002bb565b5062000200635b5e139f60e01b6200021960201b60201c565b505050600060138190555060006014819055506200036a565b63ffffffff60e01b817bffffffffffffffffffffffffffffffffffffffffffffffffffffffff1916141515156200024f57600080fd5b6001806000837bffffffffffffffffffffffffffffffffffffffffffffffffffffffff19167bffffffffffffffffffffffffffffffffffffffffffffffffffffffff1916815260200190815260200160002060006101000a81548160ff02191690831515021790555050565b828054600181600116156101000203166002900490600052602060002090601f016020900481019282601f10620002fe57805160ff19168380011785556200032f565b828001600101855582156200032f579182015b828111156200032e57825182559160200191906001019062000311565b5b5090506200033e919062000342565b5090565b6200036791905b808211156200036357600081600090555060010162000349565b5090565b90565b614c71806200037a6000396000f3fe608060405234801561001057600080fd5b50600436106101c45760003560e01c80634f6ccce7116100f9578063a4b601b111610097578063c87b56dd11610071578063c87b56dd14610fda578063d69f6bae14611081578063e985e9c51461109f578063f2fde38b1461111b576101c4565b8063a4b601b114610cc7578063b88d4fde14610e52578063bdc32be014610f57576101c4565b806370a08231116100d357806370a0823114610a4a5780637b112aa014610aa2578063893d20e814610c2d578063a22cb46514610c77576101c4565b80634f6ccce714610821578063621e9ec0146108635780636352211e146109dc576101c4565b806323b872dd1161016657806338bbfa501161014057806338bbfa50146105d357806340c10f191461072f57806342842e0e146107955780634868bd1914610803576101c4565b806323b872dd1461043e57806327dc297e146104ac5780632f745c5914610571576101c4565b806315070401116101a257806315070401146102ea57806316c38b3c1461036d57806317d7de7c1461039d57806318160ddd14610420576101c4565b806301ffc9a7146101c9578063081812fc1461022e578063095ea7b31461029c575b600080fd5b610214600480360360208110156101df57600080fd5b8101908080357bffffffffffffffffffffffffffffffffffffffffffffffffffffffff1916906020019092919050505061115f565b604051808215151515815260200191505060405180910390f35b61025a6004803603602081101561024457600080fd5b81019080803590602001909291905050506111c7565b604051808273ffffffffffffffffffffffffffffffffffffffff1673ffffffffffffffffffffffffffffffffffffffff16815260200191505060405180910390f35b6102e8600480360360408110156102b257600080fd5b81019080803573ffffffffffffffffffffffffffffffffffffffff1690602001909291908035906020019092919050505061130b565b005b6102f26115de565b6040518080602001828103825283818151815260200191508051906020019080838360005b83811015610332578082015181840152602081019050610317565b50505050905090810190601f16801561035f5780820380516001836020036101000a031916815260200191505b509250505060405180910390f35b61039b6004803603602081101561038357600080fd5b81019080803515159060200190929190505050611680565b005b6103a5611761565b6040518080602001828103825283818151815260200191508051906020019080838360005b838110156103e55780820151818401526020810190506103ca565b50505050905090810190601f1680156104125780820380516001836020036101000a031916815260200191505b509250505060405180910390f35b610428611803565b6040518082815260200191505060405180910390f35b6104aa6004803603606081101561045457600080fd5b81019080803573ffffffffffffffffffffffffffffffffffffffff169060200190929190803573ffffffffffffffffffffffffffffffffffffffff16906020019092919080359060200190929190505050611810565b005b61056f600480360360408110156104c257600080fd5b8101908080359060200190929190803590602001906401000000008111156104e957600080fd5b8201836020820111156104fb57600080fd5b8035906020019184600183028401116401000000008311171561051d57600080fd5b91908080601f016020809104026020016040519081016040528093929190818152602001838380828437600081840152601f19601f820116905080830192505050505050509192919290505050611929565b005b6105bd6004803603604081101561058757600080fd5b81019080803573ffffffffffffffffffffffffffffffffffffffff1690602001909291908035906020019092919050505061196c565b6040518082815260200191505060405180910390f35b61072d600480360360608110156105e957600080fd5b81019080803590602001909291908035906020019064010000000081111561061057600080fd5b82018360208201111561062257600080fd5b8035906020019184600183028401116401000000008311171561064457600080fd5b91908080601f016020809104026020016040519081016040528093929190818152602001838380828437600081840152601f19601f820116905080830192505050505050509192919290803590602001906401000000008111156106a757600080fd5b8201836020820111156106b957600080fd5b803590602001918460018302840111640100000000831117156106db57600080fd5b91908080601f016020809104026020016040519081016040528093929190818152602001838380828437600081840152601f19601f8201169050808301925050505050505091929192905050506119e3565b005b61077b6004803603604081101561074557600080fd5b81019080803573ffffffffffffffffffffffffffffffffffffffff169060200190929190803590602001909291905050506119e8565b604051808215151515815260200191505060405180910390f35b610801600480360360608110156107ab57600080fd5b81019080803573ffffffffffffffffffffffffffffffffffffffff169060200190929190803573ffffffffffffffffffffffffffffffffffffffff16906020019092919080359060200190929190505050611acb565b005b61080b611b76565b6040518082815260200191505060405180910390f35b61084d6004803603602081101561083757600080fd5b8101908080359060200190929190505050611b80565b6040518082815260200191505060405180910390f35b6109c2600480360361014081101561087a57600080fd5b8101908080604001906002806020026040519081016040528092919082600260200280828437600081840152601f19601f82011690508083019250505050505091929192908060800190600280602002604051908101604052809291906000905b8282101561092f578382604002016002806020026040519081016040528092919082600260200280828437600081840152601f19601f820116905080830192505050505050815260200190600101906108db565b50505050919291929080604001906002806020026040519081016040528092919082600260200280828437600081840152601f19601f820116905080830192505050505050919291929080604001906002806020026040519081016040528092919082600260200280828437600081840152601f19601f8201169050808301925050505050509192919290505050611bb8565b604051808215151515815260200191505060405180910390f35b610a08600480360360208110156109f257600080fd5b8101908080359060200190929190505050611dd2565b604051808273ffffffffffffffffffffffffffffffffffffffff1673ffffffffffffffffffffffffffffffffffffffff16815260200191505060405180910390f35b610a8c60048036036020811015610a6057600080fd5b81019080803573ffffffffffffffffffffffffffffffffffffffff169060200190929190505050611e99565b6040518082815260200191505060405180910390f35b610c2b6004803603610180811015610ab957600080fd5b8101908080604001906002806020026040519081016040528092919082600260200280828437600081840152601f19601f82011690508083019250505050505091929192908060800190600280602002604051908101604052809291906000905b82821015610b6e578382604002016002806020026040519081016040528092919082600260200280828437600081840152601f19601f82011690508083019250505050505081526020019060010190610b1a565b50505050919291929080604001906002806020026040519081016040528092919082600260200280828437600081840152601f19601f820116905080830192505050505050919291929080604001906002806020026040519081016040528092919082600260200280828437600081840152601f19601f8201169050808301925050505050509192919290803573ffffffffffffffffffffffffffffffffffffffff16906020019092919080359060200190929190505050611f73565b005b610c35612206565b604051808273ffffffffffffffffffffffffffffffffffffffff1673ffffffffffffffffffffffffffffffffffffffff16815260200191505060405180910390f35b610cc560048036036040811015610c8d57600080fd5b81019080803573ffffffffffffffffffffffffffffffffffffffff16906020019092919080351515906020019092919050505061222f565b005b610e506004803603610180811015610cde57600080fd5b81019080803573ffffffffffffffffffffffffffffffffffffffff1690602001909291908035906020019092919080604001906002806020026040519081016040528092919082600260200280828437600081840152601f19601f82011690508083019250505050505091929192908060800190600280602002604051908101604052809291906000905b82821015610dbd578382604002016002806020026040519081016040528092919082600260200280828437600081840152601f19601f82011690508083019250505050505081526020019060010190610d69565b50505050919291929080604001906002806020026040519081016040528092919082600260200280828437600081840152601f19601f820116905080830192505050505050919291929080604001906002806020026040519081016040528092919082600260200280828437600081840152601f19601f82011690508083019250505050505091929192905050506123f6565b005b610f5560048036036080811015610e6857600080fd5b81019080803573ffffffffffffffffffffffffffffffffffffffff169060200190929190803573ffffffffffffffffffffffffffffffffffffffff1690602001909291908035906020019092919080359060200190640100000000811115610ecf57600080fd5b820183602082011115610ee157600080fd5b80359060200191846001830284011164010000000083111715610f0357600080fd5b91908080601f016020809104026020016040519081016040528093929190818152602001838380828437600081840152601f19601f820116905080830192505050505050509192919290505050612515565b005b610f5f6125c8565b6040518080602001828103825283818151815260200191508051906020019080838360005b83811015610f9f578082015181840152602081019050610f84565b50505050905090810190601f168015610fcc5780820380516001836020036101000a031916815260200191505b509250505060405180910390f35b61100660048036036020811015610ff057600080fd5b810190808035906020019092919050505061266a565b6040518080602001828103825283818151815260200191508051906020019080838360005b8381101561104657808201518184015260208101905061102b565b50505050905090810190601f1680156110735780820380516001836020036101000a031916815260200191505b509250505060405180910390f35b61108961279c565b6040518082815260200191505060405180910390f35b611101600480360360408110156110b557600080fd5b81019080803573ffffffffffffffffffffffffffffffffffffffff169060200190929190803573ffffffffffffffffffffffffffffffffffffffff1690602001909291905050506127a6565b604051808215151515815260200191505060405180910390f35b61115d6004803603602081101561113157600080fd5b81019080803573ffffffffffffffffffffffffffffffffffffffff1690602001909291905050506128c4565b005b600060016000837bffffffffffffffffffffffffffffffffffffffffffffffffffffffff19167bffffffffffffffffffffffffffffffffffffffffffffffffffffffff1916815260200190815260200160002060009054906101000a900460ff169050919050565b6000801515600060149054906101000a900460ff161515141515611253576040517f08c379a000000000000000000000000000000000000000000000000000000000815260040180806020018281038252601b8152602001807f436f6e7472616374206d757374206e6f7420626520706175736564000000000081525060200191505060405180910390fd5b61125c82612ad1565b15156112d0576040517f08c379a00000000000000000000000000000000000000000000000000000000081526004018080602001828103825260148152602001807f746f6b656e20646f6573206e6f7420657869737400000000000000000000000081525060200191505060405180910390fd5b6003600083815260200190815260200160002060009054906101000a900473ffffffffffffffffffffffffffffffffffffffff169050919050565b60001515600060149054906101000a900460ff161515141515611396576040517f08c379a000000000000000000000000000000000000000000000000000000000815260040180806020018281038252601b8152602001807f436f6e7472616374206d757374206e6f7420626520706175736564000000000081525060200191505060405180910390fd5b8173ffffffffffffffffffffffffffffffffffffffff166002600083815260200190815260200160002060009054906101000a900473ffffffffffffffffffffffffffffffffffffffff1673ffffffffffffffffffffffffffffffffffffffff1614151515611450576040517f08c379a0000000000000000000000000000000000000000000000000000000008152600401808060200182810382526031815260200180614c156031913960400191505060405180910390fd5b611458612206565b73ffffffffffffffffffffffffffffffffffffffff163373ffffffffffffffffffffffffffffffffffffffff161415156114fa576040517f08c379a000000000000000000000000000000000000000000000000000000000815260040180806020018281038252601d8152602001807f73656e646572206d75737420626520636f6e7472616374206f776e657200000081525060200191505060405180910390fd5b816003600083815260200190815260200160002060006101000a81548173ffffffffffffffffffffffffffffffffffffffff021916908373ffffffffffffffffffffffffffffffffffffffff160217905550808273ffffffffffffffffffffffffffffffffffffffff166002600084815260200190815260200160002060009054906101000a900473ffffffffffffffffffffffffffffffffffffffff1673ffffffffffffffffffffffffffffffffffffffff167f8c5be1e5ebec7d5bd14f71427d1e84f3dd0314c0f7b2291e5b200ac8c7c3b92560405160405180910390a45050565b606060108054600181600116156101000203166002900480601f0160208091040260200160405190810160405280929190818152602001828054600181600116156101000203166002900480156116765780601f1061164b57610100808354040283529160200191611676565b820191906000526020600020905b81548152906001019060200180831161165957829003601f168201915b5050505050905090565b6000809054906101000a900473ffffffffffffffffffffffffffffffffffffffff1673ffffffffffffffffffffffffffffffffffffffff163373ffffffffffffffffffffffffffffffffffffffff16141515611744576040517f08c379a00000000000000000000000000000000000000000000000000000000081526004018080602001828103825260198152602001807f4f6e6c7920746865206f776e657220697320616c6c6f7765640000000000000081525060200191505060405180910390fd5b80600060146101000a81548160ff02191690831515021790555050565b6060600f8054600181600116156101000203166002900480601f0160208091040260200160405190810160405280929190818152602001828054600181600116156101000203166002900480156117f95780601f106117ce576101008083540402835291602001916117f9565b820191906000526020600020905b8154815290600101906020018083116117dc57829003601f168201915b5050505050905090565b6000600880549050905090565b60001515600060149054906101000a900460ff16151514151561189b576040517f08c379a000000000000000000000000000000000000000000000000000000000815260040180806020018281038252601b8152602001807f436f6e7472616374206d757374206e6f7420626520706175736564000000000081525060200191505060405180910390fd5b6118a58382612b43565b1515611919576040517f08c379a000000000000000000000000000000000000000000000000000000000815260040180806020018281038252600f8152602001807f6973206e6f7420617070726f766564000000000000000000000000000000000081525060200191505060405180910390fd5b611924838383612bd8565b505050565b611968828260006040519080825280601f01601f1916602001820160405280156119625781602001600182028038833980820191505090505b506119e3565b5050565b600061197783611e99565b8210151561198457600080fd5b600660008473ffffffffffffffffffffffffffffffffffffffff1673ffffffffffffffffffffffffffffffffffffffff168152602001908152602001600020828154811015156119d057fe5b9060005260206000200154905092915050565b505050565b60008060009054906101000a900473ffffffffffffffffffffffffffffffffffffffff1673ffffffffffffffffffffffffffffffffffffffff163373ffffffffffffffffffffffffffffffffffffffff16141515611aae576040517f08c379a00000000000000000000000000000000000000000000000000000000081526004018080602001828103825260198152602001807f4f6e6c7920746865206f776e657220697320616c6c6f7765640000000000000081525060200191505060405180910390fd5b611ab88383612bfc565b611ac182612c1d565b6001905092915050565b60001515600060149054906101000a900460ff161515141515611b56576040517f08c379a000000000000000000000000000000000000000000000000000000000815260040180806020018281038252601b8152602001807f436f6e7472616374206d757374206e6f7420626520706175736564000000000081525060200191505060405180910390fd5b611b7183838360405180602001604052806000815250612515565b505050565b6000601354905090565b6000611b8a611803565b82101515611b9757600080fd5b600882815481101515611ba657fe5b90600052602060002001549050919050565b6000611bc26149e5565b6040518060400160405280876000600281101515611bdc57fe5b60200201518152602001876001600281101515611bf557fe5b6020020151815250816000018190525060405180604001604052806040518060400160405280886000600281101515611c2a57fe5b60200201516000600281101515611c3d57fe5b60200201518152602001886000600281101515611c5657fe5b60200201516001600281101515611c6957fe5b602002015181525081526020016040518060400160405280886001600281101515611c9057fe5b60200201516000600281101515611ca357fe5b60200201518152602001886001600281101515611cbc57fe5b60200201516001600281101515611ccf57fe5b602002015181525081525081602001819052506040518060400160405280856000600281101515611cfc57fe5b60200201518152602001856001600281101515611d1557fe5b6020020151815250816040018190525060606002604051908082528060200260200182016040528015611d575781602001602082028038833980820191505090505b50905060008090505b6002811015611da5578481600281101515611d7757fe5b60200201518282815181101515611d8a57fe5b90602001906020020181815250508080600101915050611d60565b506000611db28284612d70565b1415611dc357600192505050611dca565b6000925050505b949350505050565b6000801515600060149054906101000a900460ff161515141515611e5e576040517f08c379a000000000000000000000000000000000000000000000000000000000815260040180806020018281038252601b8152602001807f436f6e7472616374206d757374206e6f7420626520706175736564000000000081525060200191505060405180910390fd5b6002600083815260200190815260200160002060009054906101000a900473ffffffffffffffffffffffffffffffffffffffff169050919050565b6000801515600060149054906101000a900460ff161515141515611f25576040517f08c379a000000000000000000000000000000000000000000000000000000000815260040180806020018281038252601b8152602001807f436f6e7472616374206d757374206e6f7420626520706175736564000000000081525060200191505060405180910390fd5b611f6c600460008473ffffffffffffffffffffffffffffffffffffffff1673ffffffffffffffffffffffffffffffffffffffff168152602001908152602001600020612ef8565b9050919050565b611f7f86868686611bb8565b1515611ff3576040517f08c379a000000000000000000000000000000000000000000000000000000000815260040180806020018281038252601c8152602001807f736f6c7574696f6e20766572696669636174696f6e206661696c65640000000081525060200191505060405180910390fd5b6000868686866040516020018085600260200280838360005b8381101561202757808201518184015260208101905061200c565b505050509050018460026000925b8184101561207b5782846020020151600260200280838360005b8381101561206a57808201518184015260208101905061204f565b505050509050019260010192612035565b9250505083600260200280838360005b838110156120a657808201518184015260208101905061208b565b5050505090500182600260200280838360005b838110156120d45780820151818401526020810190506120b9565b50505050905001945050505050604051602081830303815290604052805190602001209050600073ffffffffffffffffffffffffffffffffffffffff166015600083815260200190815260200160002060010160009054906101000a900473ffffffffffffffffffffffffffffffffffffffff1673ffffffffffffffffffffffffffffffffffffffff161415156121d3576040517f08c379a00000000000000000000000000000000000000000000000000000000081526004018080602001828103825260178152602001807f736f6c7574696f6e20616c72656164792065786973747300000000000000000081525060200191505060405180910390fd5b6121e18383898989896123f6565b6121eb83836119e8565b50600160146000828254019250508190555050505050505050565b60008060009054906101000a900473ffffffffffffffffffffffffffffffffffffffff16905090565b60001515600060149054906101000a900460ff1615151415156122ba576040517f08c379a000000000000000000000000000000000000000000000000000000000815260040180806020018281038252601b8152602001807f436f6e7472616374206d757374206e6f7420626520706175736564000000000081525060200191505060405180910390fd5b3373ffffffffffffffffffffffffffffffffffffffff168273ffffffffffffffffffffffffffffffffffffffff16141515156122f557600080fd5b80600560003373ffffffffffffffffffffffffffffffffffffffff1673ffffffffffffffffffffffffffffffffffffffff16815260200190815260200160002060008473ffffffffffffffffffffffffffffffffffffffff1673ffffffffffffffffffffffffffffffffffffffff16815260200190815260200160002060006101000a81548160ff0219169083151502179055508173ffffffffffffffffffffffffffffffffffffffff163373ffffffffffffffffffffffffffffffffffffffff167f17307eab39ab6107e8899845ad3d59bd9653f200f220920489ca2b5937696c3183604051808215151515815260200191505060405180910390a35050565b600061240485858585612f06565b905060405180604001604052808781526020018873ffffffffffffffffffffffffffffffffffffffff16815250601560008381526020019081526020016000206000820151816000015560208201518160010160006101000a81548173ffffffffffffffffffffffffffffffffffffffff021916908373ffffffffffffffffffffffffffffffffffffffff16021790555090505060016013600082825401925050819055507f832e169522ce4784adfa242eb30432606742d59c8efed729c7973be828a60c6d87604051808273ffffffffffffffffffffffffffffffffffffffff1673ffffffffffffffffffffffffffffffffffffffff16815260200191505060405180910390a150505050505050565b60001515600060149054906101000a900460ff1615151415156125a0576040517f08c379a000000000000000000000000000000000000000000000000000000000815260040180806020018281038252601b8152602001807f436f6e7472616374206d757374206e6f7420626520706175736564000000000081525060200191505060405180910390fd5b6125ab848484611810565b6125b784848484613014565b15156125c257600080fd5b50505050565b606060118054600181600116156101000203166002900480601f0160208091040260200160405190810160405280929190818152602001828054600181600116156101000203166002900480156126605780601f1061263557610100808354040283529160200191612660565b820191906000526020600020905b81548152906001019060200180831161264357829003601f168201915b5050505050905090565b606061267582612ad1565b15156126e9576040517f08c379a00000000000000000000000000000000000000000000000000000000081526004018080602001828103825260148152602001807f746f6b656e20646f6573206e6f7420657869737400000000000000000000000081525060200191505060405180910390fd5b601260008381526020019081526020016000208054600181600116156101000203166002900480601f0160208091040260200160405190810160405280929190818152602001828054600181600116156101000203166002900480156127905780601f1061276557610100808354040283529160200191612790565b820191906000526020600020905b81548152906001019060200180831161277357829003601f168201915b50505050509050919050565b6000601454905090565b6000801515600060149054906101000a900460ff161515141515612832576040517f08c379a000000000000000000000000000000000000000000000000000000000815260040180806020018281038252601b8152602001807f436f6e7472616374206d757374206e6f7420626520706175736564000000000081525060200191505060405180910390fd5b600560008473ffffffffffffffffffffffffffffffffffffffff1673ffffffffffffffffffffffffffffffffffffffff16815260200190815260200160002060008373ffffffffffffffffffffffffffffffffffffffff1673ffffffffffffffffffffffffffffffffffffffff16815260200190815260200160002060009054906101000a900460ff16905092915050565b6000809054906101000a900473ffffffffffffffffffffffffffffffffffffffff1673ffffffffffffffffffffffffffffffffffffffff163373ffffffffffffffffffffffffffffffffffffffff16141515612988576040517f08c379a00000000000000000000000000000000000000000000000000000000081526004018080602001828103825260198152602001807f4f6e6c7920746865206f776e657220697320616c6c6f7765640000000000000081525060200191505060405180910390fd5b8073ffffffffffffffffffffffffffffffffffffffff168173ffffffffffffffffffffffffffffffffffffffff16141515612a2b576040517f08c379a000000000000000000000000000000000000000000000000000000000815260040180806020018281038252600f8152602001807f496e76616c69642061646472657373000000000000000000000000000000000081525060200191505060405180910390fd5b806000806101000a81548173ffffffffffffffffffffffffffffffffffffffff021916908373ffffffffffffffffffffffffffffffffffffffff1602179055507fbfaea6a5831818a14c642eaa23c5eed274ba1be3f18b642b251f57862fe9e2ec81604051808273ffffffffffffffffffffffffffffffffffffffff1673ffffffffffffffffffffffffffffffffffffffff16815260200191505060405180910390a150565b6000806002600084815260200190815260200160002060009054906101000a900473ffffffffffffffffffffffffffffffffffffffff169050600073ffffffffffffffffffffffffffffffffffffffff168173ffffffffffffffffffffffffffffffffffffffff161415915050919050565b600080612b4f83611dd2565b90508073ffffffffffffffffffffffffffffffffffffffff168473ffffffffffffffffffffffffffffffffffffffff161480612bbe57508373ffffffffffffffffffffffffffffffffffffffff16612ba6846111c7565b73ffffffffffffffffffffffffffffffffffffffff16145b80612bcf5750612bce81856127a6565b5b91505092915050565b612be38383836131ff565b612bed83826134c5565b612bf78282613669565b505050565b612c068282613730565b612c108282613669565b612c198161394c565b5050565b612c2681612ad1565b1515612c9a576040517f08c379a00000000000000000000000000000000000000000000000000000000081526004018080602001828103825260138152602001807f746f6b656e206973206e6f74206578697374210000000000000000000000000081525060200191505060405180910390fd5b612d4660118054600181600116156101000203166002900480601f016020809104026020016040519081016040528092919081815260200182805460018160011615610100020316600290048015612d335780601f10612d0857610100808354040283529160200191612d33565b820191906000526020600020905b815481529060010190602001808311612d1657829003601f168201915b5050505050612d4183613998565b613ad2565b601260008381526020019081526020016000209080519060200190612d6c929190614a19565b5050565b6000807f30644e72e131a029b85045b68181585d2833e84879b9709143e1f593f00000019050612d9e614a99565b612da6613b16565b90508060800151516001865101141515612dbf57600080fd5b612dc7614ae1565b6040518060400160405280600081526020016000815250905060008090505b8651811015612e6b57838782815181101515612dfe57fe5b90602001906020020151101515612e1457600080fd5b612e5c82612e57856080015160018501815181101515612e3057fe5b906020019060200201518a85815181101515612e4857fe5b90602001906020020151613f6f565b614009565b91508080600101915050612de6565b50612e928183608001516000815181101515612e8357fe5b90602001906020020151614009565b9050612ed885600001518660200151612eaa846140c4565b8560400151612ebc8a604001516140c4565b8760600151612ece89600001516140c4565b8960200151614160565b1515612eea5760019350505050612ef2565b600093505050505b92915050565b600081600001549050919050565b6000848484846040516020018085600260200280838360005b83811015612f3a578082015181840152602081019050612f1f565b505050509050018460026000925b81841015612f8e5782846020020151600260200280838360005b83811015612f7d578082015181840152602081019050612f62565b505050509050019260010192612f48565b9250505083600260200280838360005b83811015612fb9578082015181840152602081019050612f9e565b5050505090500182600260200280838360005b83811015612fe7578082015181840152602081019050612fcc565b50505050905001945050505050604051602081830303815290604052805190602001209050949350505050565b60006130358473ffffffffffffffffffffffffffffffffffffffff166142e4565b151561304457600190506131f7565b60008473ffffffffffffffffffffffffffffffffffffffff1663150b7a02338887876040518563ffffffff1660e01b8152600401808573ffffffffffffffffffffffffffffffffffffffff1673ffffffffffffffffffffffffffffffffffffffff1681526020018473ffffffffffffffffffffffffffffffffffffffff1673ffffffffffffffffffffffffffffffffffffffff16815260200183815260200180602001828103825283818151815260200191508051906020019080838360005b8381101561311f578082015181840152602081019050613104565b50505050905090810190601f16801561314c5780820380516001836020036101000a031916815260200191505b5095505050505050602060405180830381600087803b15801561316e57600080fd5b505af1158015613182573d6000803e3d6000fd5b505050506040513d602081101561319857600080fd5b8101908080519060200190929190505050905063150b7a0260e01b7bffffffffffffffffffffffffffffffffffffffffffffffffffffffff1916817bffffffffffffffffffffffffffffffffffffffffffffffffffffffff1916149150505b949350505050565b8273ffffffffffffffffffffffffffffffffffffffff1661321f82611dd2565b73ffffffffffffffffffffffffffffffffffffffff161415156132aa576040517f08c379a00000000000000000000000000000000000000000000000000000000081526004018080602001828103825260208152602001807f546f6b656e20646f6573206e6f742062656c6f6e6720746f206164647265737381525060200191505060405180910390fd5b600073ffffffffffffffffffffffffffffffffffffffff168273ffffffffffffffffffffffffffffffffffffffff161415151561334f576040517f08c379a00000000000000000000000000000000000000000000000000000000081526004018080602001828103825260128152602001807f4164647265737320697320696e76616c6964000000000000000000000000000081525060200191505060405180910390fd5b6003600082815260200190815260200160002060006101000a81549073ffffffffffffffffffffffffffffffffffffffff02191690556133cc600460008573ffffffffffffffffffffffffffffffffffffffff1673ffffffffffffffffffffffffffffffffffffffff16815260200190815260200160002061432f565b613413600460008473ffffffffffffffffffffffffffffffffffffffff1673ffffffffffffffffffffffffffffffffffffffff168152602001908152602001600020614352565b816002600083815260200190815260200160002060006101000a81548173ffffffffffffffffffffffffffffffffffffffff021916908373ffffffffffffffffffffffffffffffffffffffff160217905550808273ffffffffffffffffffffffffffffffffffffffff168473ffffffffffffffffffffffffffffffffffffffff167fddf252ad1be2c89b69c2b068fc378daa952ba7f163c4a11628f55a4df523b3ef60405160405180910390a4505050565b600061351d6001600660008673ffffffffffffffffffffffffffffffffffffffff1673ffffffffffffffffffffffffffffffffffffffff1681526020019081526020016000208054905061436890919063ffffffff16565b90506000600760008481526020019081526020016000205490508181141515613610576000600660008673ffffffffffffffffffffffffffffffffffffffff1673ffffffffffffffffffffffffffffffffffffffff1681526020019081526020016000208381548110151561358e57fe5b9060005260206000200154905080600660008773ffffffffffffffffffffffffffffffffffffffff1673ffffffffffffffffffffffffffffffffffffffff168152602001908152602001600020838154811015156135e857fe5b9060005260206000200181905550816007600083815260200190815260200160002081905550505b600660008573ffffffffffffffffffffffffffffffffffffffff1673ffffffffffffffffffffffffffffffffffffffff1681526020019081526020016000208054809190600190036136629190614afb565b5050505050565b600660008373ffffffffffffffffffffffffffffffffffffffff1673ffffffffffffffffffffffffffffffffffffffff168152602001908152602001600020805490506007600083815260200190815260200160002081905550600660008373ffffffffffffffffffffffffffffffffffffffff1673ffffffffffffffffffffffffffffffffffffffff1681526020019081526020016000208190806001815401808255809150509060018203906000526020600020016000909192909190915055505050565b61373981612ad1565b1515156137ae576040517f08c379a00000000000000000000000000000000000000000000000000000000081526004018080602001828103825260148152602001807f546f6b656e20616c72656164792065786973747300000000000000000000000081525060200191505060405180910390fd5b600073ffffffffffffffffffffffffffffffffffffffff168273ffffffffffffffffffffffffffffffffffffffff1614151515613853576040517f08c379a00000000000000000000000000000000000000000000000000000000081526004018080602001828103825260168152602001807f546865206164647265737320697320696e76616c69640000000000000000000081525060200191505060405180910390fd5b816002600083815260200190815260200160002060006101000a81548173ffffffffffffffffffffffffffffffffffffffff021916908373ffffffffffffffffffffffffffffffffffffffff1602179055506138ec600460008473ffffffffffffffffffffffffffffffffffffffff1673ffffffffffffffffffffffffffffffffffffffff168152602001908152602001600020614352565b808273ffffffffffffffffffffffffffffffffffffffff16600073ffffffffffffffffffffffffffffffffffffffff167fddf252ad1be2c89b69c2b068fc378daa952ba7f163c4a11628f55a4df523b3ef60405160405180910390a45050565b6008805490506009600083815260200190815260200160002081905550600881908060018154018082558091505090600182039060005260206000200160009091929091909150555050565b606060008214156139e0576040518060400160405280600181526020017f30000000000000000000000000000000000000000000000000000000000000008152509050613acd565b600082905060005b600082141515613a0e578080600101915050600a82811515613a0657fe5b0491506139e8565b6060816040519080825280601f01601f191660200182016040528015613a435781602001600182028038833980820191505090505b50905060006001830390505b600086141515613ac557600a86811515613a6557fe5b0660300160f81b828280600190039350815181101515613a8157fe5b9060200101907effffffffffffffffffffffffffffffffffffffffffffffffffffffffffffff1916908160001a905350600a86811515613abd57fe5b049550613a4f565b819450505050505b919050565b6060613b0e83836040518060200160405280600081525060405180602001604052806000815250604051806020016040528060008152506143b2565b905092915050565b613b1e614a99565b60405180604001604052807f1936c240636390dc823e3a728e94b208eb53c6756d81da57ec3425e05d43ac1081526020017f2d70ff78e8216bf29d58923a686d9738278b8ce2fd822e197c85b09286d155668152508160000181905250604051806040016040528060405180604001604052807f2b4daf047abe2e7f0b311118c1b963b63695dc0d769cea78849604434de055bf81526020017f29c13ecb6f33dbc4b3b8a02e2e255511ce4c26a8a2f299efcc94caf2de4fce00815250815260200160405180604001604052807f1da9020008df7f549751f8a251af3b2dc4a2ad3e0870de54acaedd9fc1b47e1781526020017f25ea0d7e2b29de431b86a943db30dbf4d98f68df9ca8a9628d14d1591e817d908152508152508160200181905250604051806040016040528060405180604001604052807f011016e22ae045444f50fb80f246ec486c7e02af09132cd38c4fcf484983e4f281526020017ee83c788c2878d1d5eba3ed49b0d81e4c0487dedc3e4d1c2baab5833785b62f815250815260200160405180604001604052807f05eb89e741ed5b5d611cebf92d1ed02cd6f3311089f0d400df7d9ced5a48fd4181526020017f132a90a3b0d369ccd66e2a5ba04a935e44d8ad5dca93a76bba592a578130a9118152508152508160400181905250604051806040016040528060405180604001604052807f065f6a3323a2abffd621fc263f348eb914904b68d5897729ae34a6b9d33f085281526020017f0c3b60f59d3bd50328a04c0ff6d979199685d0526f89f6ac29d6174ce24707a2815250815260200160405180604001604052807f26e7ebce2b44efef6b6315938e33f0a8ecc82dbad635c9efa681ed85bbb5998281526020017f12e0f3721230a0f38f6c9913048d5230fd2615ef3ff7f6ee4b20dfe0bdea1a8681525081525081606001819052506003604051908082528060200260200182016040528015613e0457816020015b613df1614b27565b815260200190600190039081613de95790505b50816080018190525060405180604001604052807f1ef8d5d70234aa3e3d8fc4e3f1ca01c703182580b581106798f05b35fd5082c081526020017f2e468046d4ae35138e2032224925d5389712e5ca5e68f4d9c1e1858e7d65602d81525081608001516000815181101515613e7557fe5b9060200190602002018190525060405180604001604052807f0cefae0e3fa6aa25a4485ab7b21d32794d3431a4e4a5ca82ea427b831534c2c981526020017f23e3d2035b70884e547638b111870f5957f58ad8068f7a21470164ad361e1e8881525081608001516001815181101515613eea57fe5b9060200190602002018190525060405180604001604052807f030ffe78ec3de150e8688db619bde78e21e894754e6be5ed83742677628b24bc81526020017f053392f88cfa9092dfbc0bd199d8159e56207779473c24fc601eff91bcd345ca81525081608001516002815181101515613f5f57fe5b9060200190602002018190525090565b613f77614ae1565b613f7f614b41565b8360000151816000600381101515613f9357fe5b6020020181815250508360200151816001600381101515613fb057fe5b60200201818152505082816002600381101515613fc957fe5b602002018181525050600060608360808460076107d05a03fa90508060008114613ff257613ff4565bfe5b5080151561400157600080fd5b505092915050565b614011614ae1565b614019614b63565b836000015181600060048110151561402d57fe5b602002018181525050836020015181600160048110151561404a57fe5b602002018181525050826000015181600260048110151561406757fe5b602002018181525050826020015181600360048110151561408457fe5b602002018181525050600060608360c08460066107d05a03fa905080600081146140ad576140af565bfe5b508015156140bc57600080fd5b505092915050565b6140cc614ae1565b60007f30644e72e131a029b85045b68181585d97816a916871ca8d3c208c16d87cfd47905060008360000151148015614109575060008360200151145b1561412d57604051806040016040528060008152602001600081525091505061415b565b60405180604001604052808460000151815260200182856020015181151561415157fe5b0683038152509150505b919050565b60006060600460405190808252806020026020018201604052801561419f57816020015b61418c614b27565b8152602001906001900390816141845790505b509050606060046040519080825280602002602001820160405280156141df57816020015b6141cc614b85565b8152602001906001900390816141c45790505b5090508a8260008151811015156141f257fe5b906020019060200201819052508882600181518110151561420f57fe5b906020019060200201819052508682600281518110151561422c57fe5b906020019060200201819052508482600381518110151561424957fe5b906020019060200201819052508981600081518110151561426657fe5b906020019060200201819052508781600181518110151561428357fe5b90602001906020020181905250858160028151811015156142a057fe5b90602001906020020181905250838160038151811015156142bd57fe5b906020019060200201819052506142d48282614692565b9250505098975050505050505050565b60008060007fc5d2460186f7233c927e7db2dcc703c0e500b653ca82273b7bfad8045d85a47060001b9050833f915080821415801561432657506000801b8214155b92505050919050565b6143476001826000015461436890919063ffffffff16565b816000018190555050565b6001816000016000828254019250508190555050565b60006143aa83836040518060400160405280601e81526020017f536166654d6174683a207375627472616374696f6e206f766572666c6f770000815250614923565b905092915050565b6060808690506060869050606086905060608690506060869050606081518351855187518951010101016040519080825280601f01601f19166020018201604052801561440e5781602001600182028038833980820191505090505b509050606081905060008090506000809050600090505b885181101561449957888181518110151561443c57fe5b90602001015160f81c60f81b838380600101945081518110151561445c57fe5b9060200101907effffffffffffffffffffffffffffffffffffffffffffffffffffffffffffff1916908160001a9053508080600101915050614425565b600090505b87518110156145125787818151811015156144b557fe5b90602001015160f81c60f81b83838060010194508151811015156144d557fe5b9060200101907effffffffffffffffffffffffffffffffffffffffffffffffffffffffffffff1916908160001a905350808060010191505061449e565b600090505b865181101561458b57868181518110151561452e57fe5b90602001015160f81c60f81b838380600101945081518110151561454e57fe5b9060200101907effffffffffffffffffffffffffffffffffffffffffffffffffffffffffffff1916908160001a9053508080600101915050614517565b600090505b85518110156146045785818151811015156145a757fe5b90602001015160f81c60f81b83838060010194508151811015156145c757fe5b9060200101907effffffffffffffffffffffffffffffffffffffffffffffffffffffffffffff1916908160001a9053508080600101915050614590565b600090505b845181101561467d57848181518110151561462057fe5b90602001015160f81c60f81b838380600101945081518110151561464057fe5b9060200101907effffffffffffffffffffffffffffffffffffffffffffffffffffffffffffff1916908160001a9053508080600101915050614609565b82995050505050505050505095945050505050565b6000815183511415156146a457600080fd5b60008351905060006006820290506060816040519080825280602002602001820160405280156146e35781602001602082028038833980820191505090505b50905060008090505b838110156148c157868181518110151561470257fe5b9060200190602002015160000151826000600684020181518110151561472457fe5b9060200190602002018181525050868181518110151561474057fe5b9060200190602002015160200151826001600684020181518110151561476257fe5b9060200190602002018181525050858181518110151561477e57fe5b9060200190602002015160000151600060028110151561479a57fe5b602002015182600260068402018151811015156147b357fe5b906020019060200201818152505085818151811015156147cf57fe5b906020019060200201516000015160016002811015156147eb57fe5b6020020151826003600684020181518110151561480457fe5b9060200190602002018181525050858181518110151561482057fe5b9060200190602002015160200151600060028110151561483c57fe5b6020020151826004600684020181518110151561485557fe5b9060200190602002018181525050858181518110151561487157fe5b9060200190602002015160200151600160028110151561488d57fe5b602002015182600560068402018151811015156148a657fe5b906020019060200201818152505080806001019150506146ec565b506148ca614bab565b6000602082602086026020860160086107d05a03fa905080600081146148ef576148f1565bfe5b508015156148fe57600080fd5b600082600060018110151561490f57fe5b602002015114159550505050505092915050565b600083831115829015156149d2576040517f08c379a00000000000000000000000000000000000000000000000000000000081526004018080602001828103825283818151815260200191508051906020019080838360005b8381101561499757808201518184015260208101905061497c565b50505050905090810190601f1680156149c45780820380516001836020036101000a031916815260200191505b509250505060405180910390fd5b5060008385039050809150509392505050565b6040518061010001604052806149f9614b27565b8152602001614a06614b85565b8152602001614a13614b27565b81525090565b828054600181600116156101000203166002900490600052602060002090601f016020900481019282601f10614a5a57805160ff1916838001178555614a88565b82800160010185558215614a88579182015b82811115614a87578251825591602001919060010190614a6c565b5b509050614a959190614bcd565b5090565b604051806101e00160405280614aad614b27565b8152602001614aba614b85565b8152602001614ac7614b85565b8152602001614ad4614b85565b8152602001606081525090565b604051806040016040528060008152602001600081525090565b815481835581811115614b2257818360005260206000209182019101614b219190614bcd565b5b505050565b604051806040016040528060008152602001600081525090565b6040518060600160405280600390602082028038833980820191505090505090565b6040518060800160405280600490602082028038833980820191505090505090565b6040518060800160405280614b98614bf2565b8152602001614ba5614bf2565b81525090565b6040518060200160405280600190602082028038833980820191505090505090565b614bef91905b80821115614beb576000816000905550600101614bd3565b5090565b90565b604051806040016040528060029060208202803883398082019150509050509056fe4164647265737320746f206265207472616e7366657272656420746f20697320616c726561647920746865206f776e6572a165627a7a723058203150c22be3e636e779f4f0d695ec06fa84e8a6e2950fc98ba6c1342270a708ad002968747470733a2f2f73332d75732d776573742d322e616d617a6f6e6177732e636f6d2f756461636974792d626c6f636b636861696e2f63617073746f6e652f",
  "source": "pragma solidity >=0.4.21 <0.6.0;\r\n\r\nimport \"./ERC721Mintable.sol\";\r\nimport \"./Verifier.sol\";\r\n\r\n\r\n// TODO define a contract call to the zokrates generated solidity contract <Verifier> or <renamedVerifier>\r\n\r\ncontract SoInSquareVerifier is customERC721Token, Verifier {\r\n    struct solution {  \r\n        uint256  solutionIndex;  \r\n        address solutionAddress; \r\n    }\r\n\r\n    uint256 noOfSolutions;\r\n\r\n    uint256 noTokensMinted;\r\n\r\n    mapping(bytes32 => solution) private solutions;\r\n\r\n    event addSolution(address newSolution);\r\n\r\n    function addNewSolution(address newAddress, uint256 solutionId, uint[2] memory a,uint[2][2] memory b,\r\n                     uint[2] memory c, uint[2] memory input) public {\r\n        bytes32 solutionHash = getHash(a,b,c,input);\r\n        solutions[solutionHash] = solution({\r\n            solutionIndex: solutionId,\r\n            solutionAddress: newAddress\r\n        });\r\n        noOfSolutions += 1;\r\n        emit addSolution(newAddress);\r\n    }\r\n\r\n    function getSolutionsAdded() public view returns(uint256) {\r\n        return noOfSolutions;\r\n    }\r\n\r\n    function getTokensMinted() public view returns(uint256) {\r\n        return noTokensMinted;\r\n    }\r\n\r\n    function getHash(uint[2] memory a,uint[2][2] memory b, uint[2] memory c, uint[2] memory input) internal returns(bytes32) {\r\n        return keccak256(abi.encodePacked(a,b,c,input));\r\n    }\r\n\r\n    constructor () public {\r\n        noOfSolutions = 0;\r\n        noTokensMinted = 0;\r\n    }\r\n\r\n    function mintNFT(uint[2] memory a,uint[2][2] memory b,\r\n                     uint[2] memory c, uint[2] memory input, address newAddress, uint256 newId) public {\r\n                         require(verifyTx(a,b,c,input), \"solution verification failed\");\r\n                         bytes32 solHash = keccak256(abi.encodePacked(a,b,c,input));\r\n                         require(solutions[solHash].solutionAddress == address(0), \"solution already exists\");\r\n                         addNewSolution(newAddress, newId, a, b, c, input);\r\n                         mint(newAddress, newId);\r\n                         noTokensMinted += 1;\r\n    }\r\n}\r\n\r\n// TODO define another contract named SolnSquareVerifier that inherits from your ERC721Mintable class\r\n\r\n\r\n\r\n// TODO define a solutions struct that can hold an index & an address\r\n\r\n\r\n// TODO define an array of the above struct\r\n\r\n\r\n// TODO define a mapping to store unique solutions submitted\r\n\r\n\r\n\r\n// TODO Create an event to emit when a solution is added\r\n\r\n\r\n\r\n// TODO Create a function to add the solutions to the array and emit the event\r\n\r\n\r\n\r\n// TODO Create a function to mint new NFT only after the solution has been verified\r\n//  - make sure the solution is unique (has not been used before)\r\n//  - make sure you handle metadata as well as tokenSuplly\r\n\r\n  \r\n\r\n\r\n\r\n\r\n\r\n\r\n\r\n\r\n\r\n\r\n\r\n\r\n\r\n\r\n\r\n\r\n\r\n\r\n\r\n\r\n\r\n\r\n\r\n\r\n\r\n\r\n",
  "sourcePath": "C:/Users/jb7741/Downloads/udacity/Blockchain-Capstone/eth-contracts/contracts/SolnSquareVerifier.sol",
  "compiler": {
    "name": "solc",
    "version": "0.5.5+commit.47a71e8f.Emscripten.clang"
  },
  "schemaVersion": "3.2.3",
  "updatedAt": "2020-09-27T22:41:34.922Z",
  "networkType": "ethereum",
  "devdoc": {
    "methods": {
      "isApprovedForAll(address,address)": {
        "details": "Tells whether an operator is approved by a given owner\r",
        "params": {
          "operator": "operator address which you want to query the approval of\r",
          "owner": "owner address which you want to query the approval of\r"
        },
        "return": "bool whether the given operator is approved by the given owner\r"
      },
      "setApprovalForAll(address,bool)": {
        "details": "Sets or unsets the approval of a given operator\r An operator is allowed to transfer all tokens of the sender on their behalf\r",
        "params": {
          "approved": "representing the status of the approval to be set\r",
          "to": "operator address to set the approval\r"
        }
      },
      "supportsInterface(bytes4)": {
        "details": "implement supportsInterface(bytes4) using a lookup table\r"
      },
      "tokenByIndex(uint256)": {
        "details": "Gets the token ID at a given index of all the tokens in this contract\r Reverts if the index is greater or equal to the total number of tokens\r",
        "params": {
          "index": "uint256 representing the index to be accessed of the tokens list\r"
        },
        "return": "uint256 token ID at the given index of the tokens list\r"
      },
      "tokenOfOwnerByIndex(address,uint256)": {
        "details": "Gets the token ID at a given index of the tokens list of the requested owner\r",
        "params": {
          "index": "uint256 representing the index to be accessed of the requested tokens list\r",
          "owner": "address owning the tokens list to be accessed\r"
        },
        "return": "uint256 token ID at the given index of the tokens list owned by the requested address\r"
      },
      "totalSupply()": {
        "details": "Gets the total amount of tokens stored by the contract\r",
        "return": "uint256 representing the total amount of tokens\r"
      }
    }
  },
  "userdoc": {
    "methods": {}
  }
}